:0300000002004CAF
:200008000000E2FBEAF2802C0000E0FBEAF08024E6B50202EBF62200E2B50202EBF22200DE
:20002800E0B50202EBF02230F6E0A88220F5D3EAC6F582228B822230F6E6A88220F5D980EE
:01004800CFE8
:0300A5000200490D
:030049000201436E
:2000A8007EE87F031EBEFF011FEE4F70F722900188E493FE740193FF8E828F83E020E7EE03
:2000C80022AF82C0071200B6D007900186E493FD740193FE8D828E83EFF022AF82C00712A3
:2000E80000B6D00790018AE493FD740193FE8D828E83EFF0221200A87582381200C97582FA
:200108000C1200C97582061200C97582010200C9AD82AE83AFF08D828E838FF0120166FC42
:2001280060188C820DBD00010EC007C006C0051200E3D005D006D00780DC221200FD75820B
:1E014800801200C990018E75F0801201187582C01200C990019475F08012011880FECA
:14018600700071007200730048656C6C6F00576F726C6400A3
:06007B00E478FFF6D8FD59
:200059007900E94400601B7A0090019A780175A000E493F2A308B8000205A0D9F4DAF275B2
:02007900A0FFE6
:200081007800E84400600A790175A000E4F309D8FC7800E84400600C7900900001E4F0A37D
:0400A100D8FCD9FAB4
:0D004C00758107120182E582600302004900
:1C01660020F71430F6148883A88220F507E6A88375830022E280F7E49322E022A8
:040182007582002260
:00000001FF
